:200000000C9419020C944A020C944A020C944A020C944A020C944A020C944A020C944A02B1
:200020000C944A020C944A020C944A020C944A020C944A020C945F1C0C944A020C944A0231
:200040000C944A020C946A170C944A020C944A020C944A020C944A020C944A020C94B51D85
:200060000C944A020C942D190C9455180C944A020C944A020C944A020C944A020C944A0205
:200080000C943C170C944A020C944A020C944A020C94FA180C9416180C944A020C9409157F
:2000A0000C944A020C944A020C940E170C944A020C944A020C944A020C944A020C94E0165D
:2000C0000C944A020C944A020C944A020C94C7180C94D7170C944A020C9494180C949817C8
:2000E0000C944A02FA0376022F0B2F0B2F0B2F0B2F0B2F0B2F0B2F0B2F0B2F0B2F0B2F0BE7
:200100002F0B17052F0B2F0BD2072F0B780A2F0B2F0B2F0B2F0B05052F0B5E042F0BC204F2
:200120002F0B3B04B1032F0B2F082F0B2F0B2F0B7F022F0B65032F0B1404080D0D0D120DB0
:200140001C0D950D260D2E0D360D400D4A0D540D630D6D0D950D770D810D8B0D4C1071100B
:200160003A108A10A510F710CD10F710EF10F71022115B10E110D910F710E810721B751B61
:20018000681B6C1BAC1B791B7D1B831B871B8B1B911B951B991BAC1B9F1BA31BA71B0C94CB
:2001A0006D0D0C94721B0C94FA030C9417050C9422110C94260D0C94C2040C94831B0C9455
:2001C0004C100C94D1270C94951B0C940D0D0C945B100C94AE0D0C94B8110C945E040C94B0
:2001E000060E0C94EB110C948B1B0C944E120C947F020C943B040C94791B0C9479110C940B
:20020000681B0C9421120C94A5100C94AD110C94AA0F0C94A71B0C9476020C94950D0C9420
:20022000BF1C0C94120D0C94EF100C949F1B0C94E1110C94F6110C94BF120C94810D0C94B3
:20024000A31B0C944A0D0C94320C0C948A100C9406130C942E0D0C947D120C94F7100C94C7
:20026000360D0C94770D0C9405050C942F0B0C94EA120C947D1B0C9471100C94780A0C94DC
:20028000B1030C94C3110C9419120C94B9110C941C0D0C94630D0C94E1100C94D9100C946E
:2002A000CA120C94470B0C944C020C942F080C9414040C94F5110C94D2070C94E8100C949C
:2002C000991B0C94080D0C94D7110C9493140C94AC1B0C94911B0C94CD110C948B0D0C94DD
:2002E00051110C94751B0C946C1B0C9481110C9465030C9405120C94871B0C94CD100C94F5
:20030000400D0C947C0B0C94540D0C943A1000002100240027002A002D0030003300010156
:200320000000040107010A0100002200250028002B002E0031003400020100000501080166
:200340000B01000020002300260029002C002F003200000100000301060109010505050548
:20036000070508080808020202020A0A0808040404040101010101010101030303030303FB
:200380000303040707070C0C0C0C0C0C0C0C0202020206060606060606060B0B0B0B0B0B64
:2003A0000B0B01021020200808102040102040800201020108040201010204081020408050
:2003C00080402010080402018004020180402010080402010804020101020408102040808A
:2003E00001020408102040800000090A02080B0C0D070603040100000000000000000000A8
:20040000000000000000000000000000000000000000000011100F000000000000000000AC
:2004200000000000000000000000000000000200D12711241FBECFEFD1E2DEBFCDBF00E036
:200440000CBF14E0A0E0B2E0E0EEFDE500E00BBF02C007900D92A034B107D9F72BE0A0E48E
:20046000B4E001C01D92AD3AB207E1F712E0C9E1D2E000E006C021970109802FFE010E94FA
:20048000DF2EC831D10780E00807A9F70E94191E0C94EB290C9400004F925F926F927F925E
:2004A0008F929F92AF92BF92CF92DF92EF92FF920F931F93CF93DF93CDB7DEB7C454D10941
:2004C0000FB6F894DEBF0FBECDBF90E0FC01E055F109EB32F10510F00C942F0B7A01162F8C
:2004E0008827EE58FF4F8F4F0C94DF2E80EF0E941E1A82E50E941E1A81E00C946C0ADA0152
:2005000011962C91922F987125FF04C08DE392E00C94B20AFA01808131E026FB222720F9F7
:200520002327983079F168F491110C942F0B3093E90580930B061092EA0510920C0602E06B
:2005400007C09031D9F1983109F470C00C942F0B011778F4F701E00FF11D61816795662795
:2005600067958081680F83E697E00E944E120E5FEFCF81E00E942B1A82E191E00197F1F75E
:200580000C942F0B43816281163071F470E0B0E84B9F600D711D1124F70145814795442728
:2005A00047959481490F06C0479544274795460F6FEF7FEF0E948C0E0C942F0BE09100025F
:2005C000E73024F08DE592E00C94B20ADA0113969C91139712963C91663091F4632F70E0E3
:2005E000B0E89B9F600D711D1124DA0115969C91159797959927979514964C91940F06C092
:20060000979599279795930F6FEF7FEFEF5FE0930002B5E0EB02F0011124E85AFB4F80835A
:2006200072836183938324830C942F0B2091000212163CF490E0622F022E000C770B35E06B
:2006400010C08FEF809300020C942F0B349FF001359FF00D1124E85AFB4F4081841739F082
:200660009F5F492F50E06417750784F790E085E022C09830F8F4FA0131968E9FD0018F9F09
:20068000B00D1124A85ABB4F3C91849FF001859FF00D1124E85AFB4F308311964D915C9174
:2006A00012975283418313963C911397338314963C9134839F5F492F50E064177507CCF695
:2006C0002150209300020C942F0B623078F0FA012181808190E0F0E82F9F800D911D1124FC
:2006E000009721F09093BB048093BA048091970B8111B5C710E08CEE810F823028F466E0D0
:2007000070E0812F0E94AA0F1F5F1634A1F781E08093970B10926A05109269051092EA0556
:2007200010920C061092E8058093E7051092C20561E084E10E94F51B61E085E10E94F51B5D
:200740008091B9008E7F8093B9008091B9008D7F8093B90088E48093B80085E48093BC00E5
:200760007EC7653008F47BC7DA011C918EEF810F843408F074C711960C9111971296CC90F1
:2007800012971396DC9013971496FC90E12FF0E0E85BF44F80818033B0F490E0FC01EE0F93
:2007A000FF1F8E0F9F1FFC01EA54F54F808190E0FC01EE0FFF1F8E0F9F1FFC01E95EF54FD5
:2007C000808186FDD2C64D2D50E0B0E8FB9E400D511D1124602F70E0E0E8CE9E600D711D24
:2007E0001124812F0E946C0F64E070E0812F0E94AA0F35C7DA0111962C9111978C9190E0E8
:20080000B0E82B9F800D911D112490935704809356040E94A91D60935204709353048093FD
:200820005404909355041BC7623008F418C7FA012181808190E0F0E82F9F800D911D112471
:20084000009711F481E090E09093020280930102209101023091020288E290E0B9010E943F
:20086000B72E7093A7046093A60488E998E0B9010E94B72E70C6623008F4F1C6DA01119621
:200880006C91119770E01230A1F012968C91B0E88B9FC0011124682B792B133051F0FA015D
:2008A000838190E090E4899F902D88271124682B792BD7018C910E94320CD1C680EF0E94D3
:2008C0001E1A8CE60E941E1A1EEF8CEC810F803138F482E00E941E1A8AE00E941E1A02C060
:2008E0001C3020F086ED810F833030F483E00E941E1A88E00E941E1A143430F484E00E94D1
:200900001E1A8EE00E941E1A8EEE810F823030F486E00E941E1A81E00E941E1A8FE70E94E2
:200920001E1A1F5F143409F4D9C5143470F680E00E941E1A81E00E941E1A8BE00E941E1AB6
:2009400081E00E941E1A81E00E941E1A81E00E941E1A88E00E941E1A81E00E941E1A8CE0FD
:200960000E941E1A81E00E941E1A8FE00E941E1A81E00E941E1A8DE00E941E1A81E00E9494
:200980001E1AA3CF662309F46AC6FA01008180EF0E941E1A8EE60E941E1A802F0E941E1A5B
:2009A000063408F09BC510E0F801E057F94F80810E941E1A000F111F98012A52394F79010C
:2009C000D9018C918F770E941E1AF701808191819C012078232B39F0880F892F881F990BEF
:2009E0008F770E941E1AF801EA52F94F808191819C012227307C232B09F470C5990F880B3A
:200A0000990F982F881F8F7767C580EF0E941E1A8AE60E941E1A1AEC103110F4812F01C03F
:200A20008FE70E941E1A1F5F1031B1F757C5DA019C9111968C9111979111AEC213969C9187
:200A4000139712968C90912CB0E89B9F800C911C1124FA019581A480B12CF0E89F9FA00C57
:200A6000B11C112490910302981721F09F3F09F0F6C504C0EEE2F4E01491EAC0809303022D
:200A8000EEE2F4E014911F3F09F4E9C5123009F472C048F5112309F451C0113009F0D8C042
:200AA00010928000109281009091810098609093810090918100916090938100282F30E015
:200AC000F901E45AFC4FE491F0E0EE0FFF1FE85DFC4F45915491F901EE55FC4FE491E09378
:200AE000BF0411E064C1143009F48FC008F46AC0153009F0ADC01092200110922101909114
:200B0000210198609093210190912101916090932101282F30E0F901E45AFC4FE491F0E0CE
:200B2000EE0FFF1FE85DFC4F45915491F901EE55FC4FE491E093BC0415E039C114BC15BC8F
:200B400094B5926094BD95B5916095BD282F30E0F901E45AFC4FE491F0E0EE0FFF1FE85DED
:200B6000FC4F45915491F901EE55FC4FE491E093C00410E070C51092B0001092B100909150
:200B8000B00092609093B0009091B10091609093B100282F30E0F901E45AFC4FE491F0E01A
:200BA000EE0FFF1FE85DFC4F4591549150939A0B4093990BF901EE55FC4FE491E0939B0BBA
:200BC00012E049C510929000109291009091910098609093910090919100916090939100FB
:200BE000282F30E0F901E45AFC4FE491F0E0EE0FFF1FE85DFC4F45915491F901EE55FC4FD8
:200C0000E491E093BE0413E0D2C01092A0001092A1009091A10098609093A1009091A100E0
:200C200091609093A100282F30E0F901E45AFC4FE491F0E0EE0FFF1FE85DFC4F459154916A
:200C4000F901EE55FC4FE491E093BD0414E0AFC017FD05C561E00E94221D812F8D7F09F04B
:200C6000A9C02401092C000C6608770860E072E18AE790E0A30192010E942F2A25962CAF7C
:200C80003DAF4EAF5FAF259769017A0121E0C21AD108E108F1083FEFC316D104E104F1046E
:200CA00009F008F44BC060E472E48FE090E0A30192010E942F2A69017A0161E0C61AD108AA
:200CC000E108F108123001F58FEFC816D104E104F10409F008F44FC460E970ED83E090E06E
:200CE000A30192010E942F2A69017A0191E0C91AD108E108F108AFEFCA16D104E104F104A1
:200D000009F018F583E050C0BFEFCB16D104E104F104B1F0A8F068E478EE81E090E0A301BC
:200D200092010E942F2A69017A01E1E0CE1AD108E108F108112309F457C44DC481E001C05D
:200D400082E0111131C085BD9DC068E478EE81E090E0A30192010E942F2A69017A01F1E014
:200D6000CF1AD108E108F1082FEFC216D104E104F10409F008F4FDC364E274EF80E090E0FC
:200D8000A30192010E942F2A69017A01F1E0CF1AD108E108F1082FEFC216D104E104F10422
:200DA00011F008F0EAC385E08093B1006BC061E00E94221D2401092C000C6608770860E084
:200DC00072E18AE790E0A30192010E942F2A69017A0181E0C81AD108E108F108C114D10420
:200DE00091E0E906F10488F068E478EE81E090E0A30192010E942F2A69017A01A1E0CA1A27
:200E0000D108E108F10883E001C081E0113069F490918100987F892B80938100A114B10489
:200E2000A1F52FEF3FEFA9015FC0133069F490919100987F892B80939100A114B10429F5BE
:200E40002FEF3FEFA90172C0143069F49091A100987F892B8093A100A114B104B1F42FEF5B
:200E60003FEFA90175C0153069F490912101987F892B80932101A114B10439F42FEF3FEF9D
:200E8000A90178C0A114B10469F09401220F331FD5010E94E72E28EE33E040E050E00E94ED
:200EA000612A03C02FEF3FEFA901123079F12CF4112359F01130C1F0D2C3143009F448C0D5
:200EC000ACF1153009F456C0CAC3C7BC2093D1043093D2044093D3045093D40480916E0008
:200EE000826080936E00BBC3D0928900C09288002093CD043093CE044093CF045093D004D6
:200F000080916F00826080936F00A9C3C092B30020939C0B30939D0B40939E0B50939F0BAE
:200F20008091700082608093700099C3D0929900C09298002093C9043093CA044093CB04D7
:200F40005093CC048091710082608093710087C3D092A900C092A8002093C5043093C6049E
:200F60004093C7045093C8048091720082608093720075C3D0922901C09228012093C10483
:200F80003093C2044093C3045093C4048091730082608093730063C3913009F060C30E94F2
:200FA000241C5DC34091A4045091A504463051050CF052C0F70180818093D80491819093D7
:200FC000D7049381228130E0F0E89F9F200D311D11246901330FEE08FF08FA01EE56FB4F77
:200FE00080836CE070E00E94AA0F6CE070E08091D7040E94AA0F8BE090E00E94922A8C014E
:201000002091D7048091D804D8018C9311962C9391E0281390E0F801928361E00E94221DAD
:2010200060E0D80111968C910E94221DF801C782D086E186F2868091A4049091A504FC01FB
:20104000EE0FFF1FE856FB4F1183008301969093A5048093A40403C38EE692E083C2DA01EC
:201060008C918111DFC012968C9112971196CC90D12CB0E88B9FC00CD11C1124FA01038185
:20108000802E912CA480B12C653079F58AE190E00E94922A7C01DC011D961C921E921C978A
:2010A00013961C921E9212971D921C92FC01168A178A108E118ED186C08697868686B18AA7
:2010C000A08A61E0802F0E94221D61E0D70150968C910E94221DF701138A128A158A148AAA
:2010E00082E090E0938782873BC06730F1F54580512C6680712C8AE190E00E94922A7C0108
:20110000FC01158614861382128211821082168A178A108E118ED186C08697868686B18AD0
:20112000A08A538A428A758A648A61E0802F0E94221D61E0F70180890E94221D61E0D701E2
:2011400052968C910E94221D61E0F70184890E94221D84E090E0D7011B969C938E931A9724
:20116000F092D604E092D5047AC28BEA92E00E94121A612F70E080E090E02AE0FE01319657
:201180007F01AF010E94EE29F70101900020E9F731978F010E191F09B8016F5F7F4F80E081
:2011A00090E00E94B32B6C01009731F0DC011C92B7010E94A12C02C000E010E001151105AA
:2011C00011F419820EC00F33110510F00FE310E0A801B601C7010E94A82CF701E00FF11FD2
:2011E00010828BED92E00E94121AC7010E94121AC601CC5BDF4F0FB6F894DEBF0FBECDBFAC
:20120000DF91CF911F910F91FF90EF90DF90CF90BF90AF909F908F907F906F905F904F901A
:201220000C942A2B813009F045C1FA012281822F90E0A0E0B0E0AC01BD01A7E0440F551F81
:20124000661F771FAA95D1F7838190E0A0E0B0E01EE0880F991FAA1FBB1F1A95D1F7482B0E
:20126000592B6A2B7B2B81814A015B01882A8581048110E0F0E88F9F000D111D1124D7018B
:201280001696DC90E090D504F090D604E114F10409F40DC1F70120853185032E000C440BFF
:2012A000550B60E67AEE80E090E00E942F2ACA01B901A50194010E942F2AD70114962D9358
:2012C0003D934D935C931797D11003C0119501951109680117FF04C0CC24DD24C01AD10ADE
:2012E0001016110634F481E090E0F7019183808305C0012B19F0D7011D921C9204E010E0A6
:20130000C114D10409F4ABC10E94A91DF70186889788A08CB18CDC01CB0188199909AA0925
:20132000BB0984809580A680B78088159905AA05BB0530F30E94A91DD70156966D937D936A
:201340008D939C9359972D913C9111971C968D919C911D972130310589F401961D969C93ED
:201360008E931C9718962D913C91199782179307B1F41D961C921E921C9711C0892B29F472
:20138000F7018085918595878487D7011C968D919C911D9701971D969C938E931C97B1E0AB
:2013A000CB1AD108F70184859585B8010E94CB2E5C0182859385029739F5F1E0AF16B10472
:2013C00081F02CF4A114B104F9F460E00BC032E0A316B10471F043E0A416B104A9F460E0CA
:2013E00009C061E0D7011E968C910E94F51B61E007C061E0D7011E968C910E94F51B60E0A4
:20140000F70180890E94F51BD7011A968D919C911B97049709F074CFB1E0AB16B104E9F0DD
:201420005CF4AB2809F06CCF61E0D7011E968C910E94F51B60E018C0F2E0AF16B10401F163
:2014400023E0A216B10409F05BCF61E0D7011E968C910E94F51B60E01AC060E0D7011E9677
:201460008C910E94F51B61E0F70180890E94F51B61E0D70152968C910E94F51B60E012C0C7
:2014800060E0D7011E968C910E94F51B61E0F70180890E94F51B60E0D70152968C910E94FE
:2014A000F51B61E0F70184890E94F51B29CF83EE92E058C08230C9F48091D5049091D604DD
:2014C000892B81F080EF0E941E1A82E70E941E1A84E00E941E1A80E00E941E1A87EF0E94CB
:2014E0001E1ABDC08FE093E03DC084E493E03AC020918E0430918F04263031058CF5DA0104
:2015000011969C91492F50E04631510531F04B30510519F082E793E025C0F7018081F901D3
:20152000E857FB4F8083F901EE57FB4F90836FE070E00E94AA0F60918E0470918F046F5FA4
:201540007F4F70938F0460938E0480919004909191040E94CB2E70939104609390047FC04E
:2015600087EA93E00E94121A7AC0812F0E94390F2AC984E019CC82E017CC62E17AE780E060
:2015800090E0A30192010E942F2A69017A0161E0C61AD108E108F1084FEFC416D104E10416
:2015A000F104B9F0B0F025968CAD9DADAEADBFAD25973AE0B595A795979587953A95D1F7AD
:2015C0006C017D0131E0C31AD108E108F10887E0EBCB86E0E9CB8FEFC816D104E104F10435
:2015E00009F058F684E0ADCBBFEFCB16D104E104F10479F170F162E17AE780E090E0A301A7
:2016000092010E942F2A69017A0191E0C91AD108E108F108AFEFCA16D104E104F104B9F072
:20162000B0F025968CAD9DADAEADBFAD25972AE0B595A795979587952A95D1F76C017D01FF
:2016400051E0C51AD108E108F10885E07CCB84E07ACB83E078CB61E00E94221D02CBCC5BAE
:20166000DF4F0FB6F894DEBF0FBECDBFDF91CF911F910F91FF90EF90DF90CF90BF90AF906B
:201680009F908F907F906F905F904F900895CF93803180F5409180045091810421E030E02F
:2016A000672B81F4B90102C0660F771F8A95E2F7CB01809590958423952390938104809384
:2016C000800418C0082E02C0220F331F0A94E2F7242B352B30938104209380049091980BCA
:2016E000911108C0C82F0E94AD1BBC018C2FCF910C946019CF9108958F929F92AF92BF924D
:20170000CF92DF92EF92FF920F931F93CF93DF93893008F09AC0982F990F990F990F58E0BB
:20172000C52EC90E96E49C1510F446E4C42E8B01C82FCC0FCC0FCC0FDC2ED0E099249394E2
:201740005B01BB24DC1430F58EEF8D0D8434F8F44D2D50E0FA01E057F94F20812230B8F4BB
:20176000892D90E08A219B2188248394009709F4812C7A01EE0CFF1C213009F056C0D929E6
:20178000F701EA52F94F882D90E091838083990CD394D8CFD0FF05C0602F61708C2F0E948D
:2017A000F51BD1FF06C0602F627081E08C0F0E94F51BD2FF06C0602F647082E08C0F0E94DB
:2017C000F51BD3FF06C0602F687083E08C0F0E94F51BD4FF06C0602F607184E08C0F0E94B0
:2017E000F51BD5FF06C0602F607285E08C0F0E94F51BD6FF06C0602F607486E08C0F0E948B
:20180000F51BD7FF22C0602F607887E08C0FDF91CF911F910F91FF90EF90DF90CF90BF904C
:20182000AF909F908F900C94F51B892B09F4A8CFF701EA52F94F80819181019709F4A0CFB0
:2018400062E08D2D0E94221D9BCFDF91CF911F910F91FF90EF90DF90CF90BF90AF909F9088
:201860008F9008958F929F92AF92BF92CF92DF92EF92FF920F931F93CF93DF93EB01863416
:2018800008F05FC1082F10E0F801E057F94F9081933009F491C0943009F053C18250843414
:2018A00008F048C1F801E85BF44FE080F12C6701CC0CDD1C603282E078070CF042C077FD0D
:2018C00005C0653B710524F4DB0104C0A0E001C0A4EBB0E0F601EE0DFF1DEA54F54F818183
:2018E00028E830E04901881A910887FD9394880C991C880C991C092C000CAA08BB0882814D
:2019000028E532E0281B310987FD3395220F331F220F331FA901330F660B770B9A01AB01B3
:20192000281939094A095B090E94592A24EB30E040E050E00E942F2A820E931EA41EB51E08
:2019400001C04B01F601EE0DFF1DEA54F54F3081303308F0EFC0218188E890E0821B910976
:2019600027FD9395880F991F880F991F8816990684F0828148E552E0481B510987FD539541
:20198000440F551F440F551FC401481559050CF4CA014FB7F894232F30E0F901EE0FFF1F65
:2019A0002E0F3F1FF901E95EF54F0297880F991F928381834FBFBEC0F82E8EEF800F8C308C
:2019C00028F084ED800F833008F0B4C061E08F2D0E94221D209711F460E004C0CF3FD1054E
:2019E00029F461E08F2D0E94F51BA4C0F801E851FC4FE4918E2F90E0FC013197E131F105CB
:201A000008F093C08827E356FF4F8F4F0C94DF2E84B5806884BDC7BD8DC084B5806284BD2B
:201A2000C8BD88C080918000806880938000D0938900C09388007EC0809180008062809342
:201A40008000D0938B00C0938A0074C08091B00080688093B000C093B3006CC08091B000A8
:201A600080628093B000C093B40064C080919000806880939000D0939900C09398005AC069
:201A800080919000806280939000D0939B00C0939A0050C080919000886080939000D09396
:201AA0009D00C0939C0046C08091A00080688093A0008091A0008F7B8093A000D093A900CE
:201AC000C093A80037C08091A00080628093A000D093AB00C093AA002DC08091A00088603D
:201AE0008093A000D093AD00C093AC0023C080912001806880932001D0932901C0932801EA
:201B000019C080912001806280932001D0932B01C0932A010FC0809120018860809320017A
:201B2000D0932D01C0932C0105C0C038D1050CF058CF52CF000F111FF801EA52F94FD183AD
:201B4000C083DF91CF911F910F91FF90EF90DF90CF90BF90AF909F908F9008959EEF980F99
:201B6000943480F4E82FF0E0DF01A057B94F9C91913041F4EE0FFF1FEA52F94F60837183CA
:201B80000C94F51B0895FF920F931F93CF93DF931F921F92CDB7DEB7082F10E0F801E05C68
:201BA000FB4F9081F62EF9220257144F411104C0F8019081F91611F12F2D30E03A832983C9
:201BC000A0914D06B0914E061097B1F0682F6F706069ED91FC9111970190F081E02DCD01D5
:201BE000199522E030E0AE014F5F5F4F62E070E08DE496E00E94ED13F801F0820F900F9056
:201C0000DF91CF911F910F91FF9008950F931F93CF93DF93893008F07AC0282F30E0F90104
:201C2000E75BFB4F6083672B09F471C0082FF901E05CFB4F1081D22FDD0FDD0FDD0F8EEFEB
:201C40008D0F843408F053C010FF51C08D2F0E94CC1B892B09F44BC0C1E08FEF8D0F843491
:201C600048F411FF07C081E08D0F0E94CC1B892B09F03FC012FF06C082E08D0F0E94CC1BC1
:201C8000892BC9F513FF06C083E08D0F0E94CC1B892B99F514FF06C084E08D0F0E94CC1BCE
:201CA000892B69F515FF06C085E08D0F0E94CC1B892B39F5D03491F016FF06C086E08D0F6A
:201CC0000E94CC1B892BF9F4DF3341F017FF06C087E08D0F0E94CC1B892BB9F441E06C2F12
:201CE000802FDF91CF911F910F910C94C30DC0E0B4CFC260BFCFC460C5CFC860CBCFC06137
:201D0000D1CFC062D7CFC064DFCFC068E7CFDF91CF911F910F910895EF92FF920F931F9388
:201D2000CF93DF93082FEB01142FF22E6F3F8FEF780701F181E08093E90500930B06109204
:201D4000EA0510920C0683E697E00E944E128F2D0E942B1A8091BA049091BB04009761F0C4
:201D6000019751F0880F991F880F991F02970197F1F702C0C0E0D0E08091E8058111FCCF66
:201D8000912F113208F090E281E08093E8058093E7052FEF2093E6051092E505290F209343
:201DA000E4058093C3058091C305202F220F822B8093C3058091C205813041F41092C20557
:201DC0008091C3058093BB0085EC01C085EE8093BC008091E8058130E1F38091E5058917CA
:201DE00010F49091E505E4ECF5E0A9E4B5E080E0891721F021912D938F5FFACF10926A05C2
:201E000080936905E12EF12C90E0E816F9061CF482EE93E005C08E159F0524F48FEF93E0A0
:201E20000E94121A00930905C0930A05C9E0D5E0CE01895095408E159F056CF42196909177
:201E4000690580916A05981731F083E697E00E9405128983EDCF1E5F612F70E049E055E0A8
:201E600087E7DF91CF911F910F91FF90EF900C94C519A82FB0E0A85BB44F9C91292F30E046
:201E8000F901EE0FFF1F2E0F3F1FF901EA54F54FE081F0E09F01220F331FE20FF31FE95E78
:201EA000F54F80818F7B80838091460B981306C0992379F091509093460B0BC0882349F0D4
:201EC000E091470BEF5FE093470BF0E0E852FB4F90838FEF8C930895DB019091460B90337A
:201EE000A8F53091470B682F70E0332369F0E32FF0E0E852FB4F8081FB01E85BF44F8083B0
:201F000031503093470B07C0FB01E85BF44F90839F5F9093460BFB01E85BF44F808190E06A
:201F20009C01220F331F820F931F1A161B0634F4141615061CF49A01AD0104C020E639E044
:201F400040E252E08A54954F0C9434168BE194E00C94121A8F929F92BF92CF92DF92EF92DF
:201F6000FF920F931F93CF93DF93C82ED12CE601C35FD94FFE01ED57FF4F90819F3709F40F
:201F800061C1963041F49091970B992321F06630710509F03BC17B01182F0EEF080F043484
:201FA000F8F464307105E1F0F601E85BF44F80818033B0F490E0FC01EE0FFF1F8E0F9F1FA2
:201FC000FC01EA54F54F808190E0FC01EE0FFF1F8E0F9F1FFC01E95EF54F808186FD1CC1B5
:201FE0005AECB52EB10E8FE08B1558F061E070E082E0E816F10411F060E070E08B2D0E94D1
:20200000470B043418F5E12FE695E695E695212F2770F0E0E05CFB4FE114F10421F08BE005
:20202000E816F10449F481E090E001C0880F2A95EAF79081892B09C081E090E001C0880FF0
:202040002A95EAF780959081892380834601880C991CF401EA52F94F1182108280E1E8167E
:20206000F10408F0C4C0F7018827E255FF4F8F4F0C94DF2E8FE08B1508F4E4C0043420F43D
:2020800060E0812F0E94221DCD57DF4F88818F3709F4D8C082E0A9C0043408F0D3C060E0EB
:2020A000812F0E94221DCD57DF4F88818F3709F4C9C01882C7C0043408F0C4C062E0812F21
:2020C0000E94221DCD57DF4F88818F3711F08BE08883F401EA52F94F81E090E09183808326
:2020E000B1C0043408F0AEC0FE01ED57FF4F8081833021F460E0812F0E94F51B61E0812FE4
:202100000E94221DCD57DF4F88818F3709F49AC081E06BC00C3028F084ED810F833008F0DA
:2021200091C061E0812F0E94221D61E0812F0E94221D60E0812F0E94F51BCD57DF4F8881AD
:202140008F3709F47FC083E050C0043408F07AC0CD57DF4F88818F3711F084E08883F60118
:20216000E85BF44F80818F3F09F45AC090E0FC01EE0FFF1F8E0F9F1FFC01EA54F54F808190
:2021800090E0FC01EE0FFF1F8E0F9F1FFC01E95EF54F808186FD56C043C01451123008F098
:2021A00051C0CD57DF4F88818F3709F44BC086E01CC0CD57DF4F88818F3709F443C08DE015
:2021C00014C0CD57DF4F88818F37E1F18CE00DC0CD57DF4F88818F37A9F18FE006C0CD57EB
:2021E000DF4F88818F3771F188E088832BC08FE294E0DF91CF911F910F91FF90EF90DF90A0
:20220000CF90BF909F908F900C94121A1092970B9FEF90930002BFCE812F0E94390FE0CE2A
:202220004FEF5FEF6FEF7FEF812FDF91CF911F910F91FF90EF90DF90CF90BF909F908F90FD
:202240000C946C0FDF91CF911F910F91FF90EF90DF90CF90BF909F908F90089585ED8093A8
:20226000BC008091BC0084FDFCCF1092E8050895613298F42091E805243089F460939F0538
:20228000282FAFE7B5E0FC018E2F821B861718F481918D93F9CF80E0089581E0089582E065
:2022A0000895CF92DF92EF92FF920F931F93CF93DF936C01EB017B01E40EF51E00E010E0CB
:2022C000CE15DF0561F06991D601ED91FC910190F081E02DC6011995080F191FF1CFC801AE
:2022E000DF91CF911F910F91FF90EF90DF90CF900895E0917905F0917A05309709F01994E9
:202300000895CF93DF93009729F1EC01C05CDF4F888199810097F1F0DC01ED91FC91019050
:20232000F081E02D69EF199588819981DC01ED91FC910190F081E02D62E0199588819981EC
:20234000DC01ED91FC910190F081E02D65E0DF91CF911994DF91CF910895862F642FE0919E
:202360007705F0917805309711F0A901199408950895862FE0917505F0917605309711F026
:20238000BA0119940895862FE0917305F0917405309711F0BA0119940895862FE091710537
:2023A000F0917205309711F0BA0119940895862FE0916F05F0917005309711F0BA01199498
:2023C0000895862FE0916D05F0916E05309711F0BA0119940895862FE0916B05F0916C057F
:2023E000309711F0BA01199408950895E0916A0580916905E81730F4F0E0E75BFA4F808195
:2024000090E008958FEF9FEF089590916A0580916905981750F4E92FF0E0E75BFA4F2081F0
:2024200030E09F5F90936A0502C02FEF3FEFC90108958091690590E020916A05821B910941
:202440000895CF92DF92EF92FF920F931F93CF93DF937C01CB018A012091E905222389F0A2
:20246000EB016B01C40ED51ECC15DD0569F06991D701ED91FC910190F081E02DC7011995C1
:20248000F3CF642F0E943811C801DF91CF911F910F91FF90EF90DF90CF900895CF93DF93C6
:2024A0001F92CDB7DEB769832091E9052223D1F020910C06203240F021E030E0FC013383B8
:2024C000228380E090E015C08091EA05E82FF0E0E551FA4F998190838F5F8093EA0580931C
:2024E0000C0605C061E0CE0101960E94381181E090E00F90DF91CF9108950F931F93CF93E0
:20250000DF93FC01A685B7858D01005C1F4FE8018881998101968F739927AD014E5B5F4F23
:20252000EA012881398128173907D1F3E80128813981A20FB31F6C93A685B785A05CBF4FCB
:2025400011969C938E93A689B7892C9181E090E0078C02C0880F991F0A94E2F7822B8C93A0
:2025600081E081A30488F589E02D80818064808381E090E0DF91CF911F910F910895FC014C
:2025800081A1882329F0A489B5898C9186FFFBCF11A20895FC01A485B585FD01E05CFF4F46
:2025A000208131813296808191812817390779F080819181A80FB91F8C91208131812F5F65
:2025C0003F4F2F7333273183208390E008958FEF9FEF0895DC011C96ED91FC911D97DF0136
:2025E000A05CBF4F2D913C91119712968D919C9111972817390739F08D919C91E80FF91F01
:20260000808190E008958FEF9FEF0895FC0124853585F901E05CFF4F8081918132962081A3
:202620003181821B930B8F739927089585EF99E00E9406138BE499E00E94061381EA98E020
:202640000E94061387EF97E00C940613CF92DF92EF92FF920F931F93CF93DF936C018B0114
:202660007A01EC01C558DA4F888187FF04C0FB011182108224C02CE02C9DC0012D9D900D57
:2026800011242881AC01420F511D27FD5A952091A70A30E04217530794F42881AC01420F89
:2026A000511D27FD5A959A01FA01EE0FFF1F2E0F3F1FF901E95EF54F208126FD19C0888122
:2026C0008F5F88832CE02C9DC0012D9D900D11242881AC01420F511D27FD5A952091A70A45
:2026E00030E042175307BCF428812C3044F113C02881820F911D27FD9A95FC01EE0FFF1F07
:202700008E0F9F1FFC01E95EF54F808160E08F730E94F51BD4CFF8018081918104968034E4
:202720009C4918F480E49CE904C0F801808191810496F701918380838FEF888345C0F801BF
:20274000408151812881BC01620F711D27FD7A959B01FB01EE0FFF1F2E0F3F1FF901E95EBF
:20276000F54F21813281240F351FF701318320832881AC01420F511D27FD5A959A01FA012C
:20278000EE0FFF1F2E0F3F1FF901E95EF54F208126FF1AC02881820F911D27FD9A95FC0126
:2027A000EE0FFF1F8E0F9F1FFC01E95EF54F808161E08F73DF91CF911F910F91FF90EF90A9
:2027C000DF90CF900C94F51BDF91CF911F910F91FF90EF90DF90CF9008953F924F925F923F
:2027E0006F927F928F929F92AF92BF92CF92DF92EF92FF920F931F93CF93DF935C01690110
:20280000DA013C90232B19F4CC24CA94DC2C7A012A01460E571EC0E0D0E000E010E087E06A
:20282000682E712CE414F50409F443C00C151D0508F067C04701F50180819181D7016D91EB
:202840007D010C2E01C0660F0A94EAF763296F77DC01ED91FC910190F081E02D19950F5F86
:202860001F4FF401608170E0C3018C1B9D0B02C0759567958A95E2F7362E2196C730D10509
:2028800088F2C016D10699F0D5018D919C91632D6F77DC01ED91FC910190F081E02D19954C
:2028A0000F5F1F4F331C3324331C2797E7CF8601B9CF209731F10C151D0518F5F5018081A4
:2028C000918161E070E001C0660FCA95EAF761506321DC01ED91FC910190F081E02DDF9143
:2028E000CF911F910F91FF90EF90DF90CF90BF90AF909F908F907F906F905F904F903F90C5
:202900001994DF91CF911F910F91FF90EF90DF90CF90BF90AF909F908F907F906F905F9035
:202920004F903F900895DF92EF92FF920F931F93CF93DF93009709F464C0FC01E058FF4F66
:20294000D080DD2009F45DC0EC01C05CDF4FA881B981109709F455C0FC01EF57FF4F0081AB
:202960001181F801F180E080ED91FC9111970190F081E02D60EFCD01199588819981DC016E
:20298000ED91FC910190F081E02D69E7199588819981DC01ED91FC910190F081E02D6E2D6A
:2029A000199588819981DC01ED91FC910190F081E02D6F2D19957801B2E0EB0EF11C0D0DDA
:2029C000111DE016F10661F020E030E0A70161E070E0CE010E94ED13EFEFEE1AFE0AF1CF23
:2029E00088819981DC01ED91FC910190F081E02D67EFDF91CF911F910F91FF90EF90DF90CA
:202A00001994DF91CF911F910F91FF90EF90DF9008951F920F920FB60F9211240BB60F9280
:202A20002F933F934F935F936F937F938F939F93AF93BF93EF93FF938091B900887F803697
:202A400009F49CC068F5883209F45BC090F4803109F454C038F4882309F4EFC0883009F470
:202A60004DC0EFC0883109F44CC0803209F45DC0E8C0803409F468C048F4803309F455C08A
:202A8000883309F0DEC08093E605D1C0803509F44FC0883509F45DC0883409F0D2C0CFC0E7
:202AA000883909F4C0C0A8F4883709F467C038F4883609F463C0803709F460C0C2C0883839
:202AC00009F4B1C0803909F45FC0803809F0B9C05BC0803B09F481C038F4803A09F466C06C
:202AE000883A09F47AC0ADC0803C09F4A0C0883C09F49DC0883B09F483C0A3C08091C305FA
:202B000010C09091E5058091E405981770F5E091E50581E08E0F8093E505F0E0EC53FA4F1E
:202B200080818093BB0085EC7FC08093E60587C0E091E50581E08E0F8093E5058091BB00AF
:202B4000F0E0EC53FA4F80839091E5058091E40567C0E091E50581E08E0F8093E505809187
:202B6000BB00F0E0EC53FA4F80838091E705811166C081E08093C20584EA5AC083E0809351
:202B8000E8051092C105CFCF8091C105803208F04AC0E091C10581E08E0F8093C105809198
:202BA000BB00F0E0EF55FA4F8083BDCF8091C105803230F4E091C105F0E0EF55FA4F10829B
:202BC0000E942E116091C10570E081EA95E0E0E0F0E019951092C1052AC084E08093E80539
:202BE0001092A00510929F05E0E0F0E0199580919F05811105C081E080939F0510927F05C0
:202C0000E091A00581E08E0F8093A005F0E0E158FA4F80818093BB009091A00580919F054C
:202C2000981708F480CF85E88093BC000AC085EC8093BC001092E80504C01092E6050E94D2
:202C40002E11FF91EF91BF91AF919F918F917F916F915F914F913F912F910F900BBE0F90CE
:202C60000FBE0F901F901895DF92EF92FF920F931F93CF93DF93EC01D62E7A0189018881E2
:202C8000803308F068C061E08D2D0E94221D8881E82FF0E09F01220F331FE20FF31FE95E28
:202CA000F54F9D2D9F732081207CD22ED92AD08220E232E02E193F0937FF02C02D5F3F4FAD
:202CC0003595279535952795298320E639E0201B310B37FF02C02D5F3F4F35952795359544
:202CE00027952A836CE00E94AB2E9CE0899FB001112440E050E09B01240F351FF901EE0FB0
:202D0000FF1F2E0F3F1FF901E95EF54F908196FD16C04F5F5F4F4C30510569F7813021F5A6
:202D20001092800082E0809381001092850010928400B19A80916F00826080936F00E88196
:202D4000F0E0CF01880F991FE80FF91FE95EF54F8081806480838881DF91CF911F910F91D9
:202D6000FF90EF90DF900895823061F41092900080939100109295001092940088BB809399
:202D80007100DDCF833069F41092A00082E08093A1001092A5001092A40089BB8093720058
:202DA000CECF8111CCCF1092200182E08093210110922501109224018ABB80937300BFCF07
:202DC0001F920F920FB60F9211240BB60F922F933F934F935F936F937F938F939F93AF9392
:202DE000BF93EF93FF9348E251E064E271E080E090E00E942613FF91EF91BF91AF919F9100
:202E00008F917F916F915F914F913F912F910F900BBE0F900FBE0F901F9018951F920F9201
:202E20000FB60F9211240BB60F922F933F934F935F936F937F938F939F93AF93BF93EF93AF
:202E4000FF9348EA50E064EA70E083E090E00E942613FF91EF91BF91AF919F918F917F9132
:202E60006F915F914F913F912F910F900BBE0F900FBE0F901F9018951F920F920FB60F926B
:202E800011240BB60F922F933F934F935F936F937F938F939F93AF93BF93EF93FF9348E9F2
:202EA00050E064E970E082E090E00E942613FF91EF91BF91AF919F918F917F916F915F91A8
:202EC0004F913F912F910F900BBE0F900FBE0F901F9018951F920F920FB60F9211240BB605
:202EE0000F922F933F934F935F936F937F938F939F93AF93BF93EF93FF9348E850E064E80D
:202F000070E081E090E00E942613FF91EF91BF91AF919F918F917F916F915F914F913F9115
:202F20002F910F900BBE0F900FBE0F901F9018951F920F920FB60F9211240BB60F922F93F1
:202F40003F938F939F93EF93FF932091AF073091B0078091B1079091B2072817390731F411
:202F6000809131018F7D8093310114C0E091B107F091B207E159F84F20818091B10790917A
:202F8000B20701968F7399279093B2078093B10720933601FF91EF919F918F913F912F919E
:202FA0000F900BBE0F900FBE0F901F9018951F920F920FB60F9211240BB60F922F933F935F
:202FC0008F939F93EF93FF932091590830915A0880915B0890915C082817390731F48091A6
:202FE000D1008F7D8093D10014C0E0915B08F0915C08E75EF74F208180915B0890915C085E
:2030000001968F73992790935C0880935B082093D600FF91EF919F918F913F912F910F9042
:203020000BBE0F900FBE0F901F9018951F920F920FB60F9211240BB60F922F933F938F935B
:203040009F93EF93FF93209103093091040980910509909106092817390731F48091C900D2
:203060008F7D8093C90014C0E0910509F0910609ED53F74F20818091050990910609019678
:203080008F73992790930609809305092093CE00FF91EF919F918F913F912F910F900BBE42
:2030A0000F900FBE0F901F9018951F920F920FB60F9211240BB60F922F933F938F939F9372
:2030C000EF93FF932091AD093091AE098091AF099091B0092817390731F48091C1008F7DD8
:2030E0008093C10014C0E091AF09F091B009E359F64F20818091AF099091B00901968F7367
:2031000099279093B0098093AF092093C600FF91EF919F918F913F912F910F900BBE0F90D8
:203120000FBE0F901F9018951F920F920FB60F9211240BB60F922F933F934F935F936F930E
:203140007F938F939F93AF93BF93EF93FF938091300182FD07C08091360163EB77E00E944A
:20316000FF1D02C080913601FF91EF91BF91AF919F918F917F916F915F914F913F912F91C9
:203180000F900BBE0F900FBE0F901F9018951F920F920FB60F9211240BB60F922F933F937D
:2031A0004F935F936F937F938F939F93AF93BF93EF93FF938091D00082FD07C08091D6001D
:2031C0006DE578E00E94FF1D02C08091D600FF91EF91BF91AF919F918F917F916F915F91EE
:2031E0004F913F912F910F900BBE0F900FBE0F901F9018951F920F920FB60F9211240BB6E2
:203200000F922F933F934F935F936F937F938F939F93AF93BF93EF93FF938091C80082FD3D
:2032200007C08091CE0067E079E00E94FF1D02C08091CE00FF91EF91BF91AF919F918F91F9
:203240007F916F915F914F913F912F910F900BBE0F900FBE0F901F9018951F920F920FB618
:203260000F9211240BB60F922F933F934F935F936F937F938F939F93AF93BF93EF93FF939E
:203280008091C00082FD07C08091C60061EB79E00E94FF1D02C08091C600FF91EF91BF91E4
:2032A000AF919F918F917F916F915F914F913F912F910F900BBE0F900FBE0F901F9018953F
:2032C0001F93CF93DF931F921F92CDB7DEB7182F7A83698380914D0690914E06009709F450
:2032E0004EC0DC01ED91FC911031A8F46115704490F4612F606E0190F081E02D199522E030
:2033000030E0AE014F5F5F4F62E070E08DE496E00E94ED1334C00190F081E02D60EF199577
:2033200080914D0690914E06DC01ED91FC910190F081E02D6FE6199580914D0690914E06E1
:20334000DC01ED91FC910190F081E02D612F199522E030E0AE014F5F5F4F62E070E08DE418
:2033600096E00E94ED1380914D0690914E06DC01ED91FC910190F081E02D67EF19950F90C2
:203380000F90DF91CF911F910895EF92FF920F931F93CF93DF93C82F80914D0690914E0667
:2033A0000097C9F17A018B01DC01ED91FC910190F081E02D60EF199580914D0690914E06E8
:2033C000DC01ED91FC910190F081E02D6C2F1995E7010E0D1F1DC017D10759F020E030E066
:2033E000AE0161E070E08DE496E00E94ED132196F2CF80914D0690914E06DC01ED91FC91CB
:203400000190F081E02D67EFDF91CF911F910F91FF90EF901994DF91CF911F910F91FF90BD
:20342000EF900895FC0101900020E9F73197BF01681B790BAC0181E70C94C519A0918B06FE
:20344000B0918C06ED91FC9111970190F081E02D682FCD011994282F30910C06313208F040
:2034600046C08091E8058111FCCF90910B0642E04093E8052093E7052FEF2093E6051092DA
:20348000E5053093E405EBEEF5E0A4ECB5E020E0321721F041914D932F5FFACF1092C305F6
:2034A0002091C305990F922B9093C3059091C205913041F41092C2059091C3059093BB0035
:2034C00095EC01C095EE9093BC009091E8059230E1F39091E6059F3F79F08091E6058032A3
:2034E00041F08091E605803331F084E005C081E003C082E001C083E01092EA0510920C06B3
:203500001092E9050895AF92BF92CF92DF92EF92FF920F931F93CF93DF93C82FD62F109242
:20352000A80A1092A90A1092AA0A1092AB0A1092AC0A61E00E94221D60E08C2F0E94F51BB0
:203540006D2F70E080E090E00E94831D60E08C2F0E94221D8AE990E00197F1F700E911E054
:203560008C2F0E94CC1B892B31F401501109C1F78EEF9FEF4CC000E911E08C2F0E94CC1BD6
:20358000019709F43FC018E2D0E800E090E9E92EFF24F3948C2F0E94CC1B892B29F481E055
:2035A000E81AF108B9F7E4CF0E945E1D6B017C0180E9A82EBB24B3948C2F0E94CC1B019766
:2035C00029F481E0A81AB108B9F7D2CF0E945E1DDC01CB018C199D09AE09BF098997A1054B
:2035E000B10538F0E02FF0E0E855F54F80818D2B8083D69511F40F5FD0E8115039F680E04B
:2036000090E005C00150110909F0B7CFB1CFDF91CF911F910F91FF90EF90DF90CF90BF90C0
:20362000AF9008951F93CF93DF93182FEB01809152069091530668177907A8F0E0917F0685
:20364000F091800681E03097C1F080934F0680916B0690916C06199580915206909153067C
:20366000C817D90748F48091500690915106C80FD91F188380E001C081E0DF91CF911F9104
:203680000895AC01FB0180E090E09C01220F331F2417350770F4DB012C91208311963C9169
:2036A000379533273795232B219301966E5F7F4FECCF0895089590E0FC013197E131F105B2
:2036C00008F04AC08827E254FF4F8F4F0C94DF2E809180008F7703C0809180008F7D809320
:2036E0008000089584B58F7702C084B58F7D84BD08958091B0008F7703C08091B0008F7D32
:203700008093B0000895809190008F7707C0809190008F7D03C080919000877F8093900021
:2037200008958091A0008F7707C08091A0008F7D03C08091A000877F8093A00008958091D6
:2037400020018F7707C0809120018F7D03C080912001877F809320010895863308F08653E7
:2037600090917B00282F2870977F922B90937B008770806480937C0080917A008064809361
:203780007A0080917A0086FDFCCF809178002091790090E0922B0895CF93DF93282F30E01E
:2037A000F901E851FC4F8491F901EE55FC4FD491F901E45AFC4FC491CC2391F081110E940D
:2037C0005B1BEC2FF0E0EE0FFF1FEE5BFC4FA591B491EC91ED2381E090E021F480E002C0C9
:2037E00080E090E0DF91CF9108951F93CF93DF93282F30E0F901E851FC4F8491F901EE55CF
:20380000FC4FD491F901E45AFC4FC491CC23C1F0162F81110E945B1BEC2FF0E0EE0FFF1F8B
:20382000E85DFC4FA591B4919FB7F894111104C08C91D095D82302C0EC91DE2BDC939FBF23
:20384000DF91CF911F91089590910302891334C0EEE2F4E0E4919FEF90930302E230B1F013
:2038600050F4EE2381F0E13039F590916F009D7F90936F0021C0E430E9F0C8F0E530E1F495
:203880001092730019C010926E0016C0909170009D7F9093700091E09093B0009091B100FE
:2038A000987F94609093B1001092B30005C01092710002C01092720060E00C94F51B1F9285
:2038C0000F920FB60F9211240BB60F922F933F934F935F936F937F938F939F93AF93BF93E6
:2038E000EF93FF9380919C0B90919D0BA0919E0BB0919F0B892B8A2B8B2B51F190919B0B46
:20390000E091990BF0919A0B80818927808380919C0B90919D0BA0919E0BB0919F0B181644
:2039200019061A061B06C4F480919C0B90919D0BA0919E0BB0919F0B0197A109B10980931A
:203940009C0B90939D0BA0939E0BB0939F0B04C0809103020E94241CFF91EF91BF91AF91D0
:203960009F918F917F916F915F914F913F912F910F900BBE0F900FBE0F901F9018950F9316
:203980001F93CF93DF9381E08093980B8091970B882329F01092970B8FEF80930002E9E46F
:2039A000F4E0C0E4D4E0AEE8BBE0119219921D9284E0E235F807C9F708E41BE0C0E0DFEF1E
:2039C0008AEC8C0F803118F462E070E00AC08EEF8C0F843420F48C2F0E94241C05C061E036
:2039E00070E08C2F0E94AA0FF801D1938F01CF5FC63431F71092A5041092A404A2E9B4E070
:203A0000E8E9F4E08FE78D9320813181232B11F011821082329694E0E43AF907A1F7109210
:203A20008104109280041092470B1092460B10928F0410928E041092980BDF91CF911F91C6
:203A40000F910895CF93DF9390E0FC01EE55FC4F2491FC01E45AFC4F8491882361F190E09D
:203A6000880F991FFC01E25FFC4FC591D491FC01E85DFC4FA591B491611109C09FB7F8948E
:203A80008881209582238883EC912E230BC0623061F49FB7F8948881322F30958323888376
:203AA000EC912E2B2C939FBF06C08FB7F894E8812E2B28838FBFDF91CF9108953FB7F894D1
:203AC0008091A50B9091A60BA091A70BB091A80B26B5A89B05C02F3F19F00196A11DB11DFF
:203AE0003FBFBA2FA92F982F8827820F911DA11DB11DBC01CD0142E0660F771F881F991FAF
:203B00004A95D1F70895CF92DF92EF92FF92CF93DF936B017C010E945E1DEB01C114D1040D
:203B2000E104F10479F00E945E1D6C1B7D0B683E7340A0F381E0C81AD108E108F108C85113
:203B4000DC4FECCFDF91CF91FF90EF90DF90CF9008952FB7F8946091A10B7091A20B809168
:203B6000A30B9091A40B2FBF08951F920F920FB60F9211242F933F938F939F93AF93BF93D3
:203B80008091A10B9091A20BA091A30BB091A40B3091A00B23E0230F2D3720F40196A11D5D
:203BA000B11D05C026E8230F0296A11DB11D2093A00B8093A10B9093A20BA093A30BB093FD
:203BC000A40B8091A50B9091A60BA091A70BB091A80B0196A11DB11D8093A50B9093A60B12
:203BE000A093A70BB093A80BBF91AF919F918F913F912F910F900FBE0F901F901895FB0117
:203C0000E05CFF4F20813181DB01AE5BBF4F4D915C912F5F3F4F2F7333274217530741F00D
:203C200040815181DB01A40FB51F8C93318320830895CF93DF93CDB7DEB72C970FB6F8947A
:203C4000DEBF0FBECDBF789484B5826084BD84B5816084BD85B5826085BD85B5816085BDF0
:203C600080916E00816080936E0010928100809181008260809381008091810081608093B2
:203C80008100809180008160809380008091B10084608093B1008091B00081608093B000CF
:203CA00080919100826080939100809191008160809391008091900081608093900080917F
:203CC000A10082608093A1008091A10081608093A1008091A00081608093A00080912101EE
:203CE000826080932101809121018160809321018091200181608093200180917A008460AE
:203D000080937A0080917A00826080937A0080917A00816080937A0080917A00806880939D
:203D20007A001092C10060E1F62EF0928D0680918E0690918F060E942A2B00918D0610E0C6
:203D4000C80101960E94922A90938F0680938E06FC01E00FF11F108221E0DC012C9322E019
:203D600011962C93A801425051096AE272E002960E94A82C82E39CE090936C0580936B05A4
:203D80008CE79BE090936E0580936D0587E49BE0909374058093730586E09EE0909376058B
:203DA000809375058AEA9FE09093700580936F058EEA9DE090937205809371058CE492E06A
:203DC00090937805809377058FEB9CE190937A0580937905E091090AF0910A0A81E090E0A0
:203DE0009C010090150A02C0220F331F0A94E2F72083E091050AF091060A1082E091070AF3
:203E0000F091080AF0821092160AE0910B0AF0910C0A40819C010090110A02C0220F331F70
:203E20000A94E2F7242B2083E0910B0AF0910C0A40819C010090120A02C0220F331F0A940F
:203E4000E2F7242B2083E0910B0AF0910C0A40819C010090130A02C0220F331F0A94E2F7B3
:203E6000242B2083E0910B0AF0910C0A20810090140A02C0880F991F0A94E2F780958223A2
:203E800080838091620781113CC061E08DE00E94221D62ED70E080E090E00E94831D61E096
:203EA0008DE00E94F51B68E270E080E090E00E94831D60E08DE00E94F51B6AEF70E080E0CF
:203EC00090E00E94831D10E062ED70E080E090E00E94831D61E08DE00E94F51B68E270E095
:203EE00080E090E00E94831D60E08DE00E94F51B1F5F123049F76DE770E080E090E00E943B
:203F0000831D85EF99E090938C0680938B0690934E0680934D060E94BF1C42E0242E312C90
:203F2000812C50EC952E59E7A52E54ECB52E809149048823C1F10091400402FF43C782E0A2
:203F40000E94CC1B892B09F43DC714E003FF06C083E00E94CC1B892B09F036C704FF06C008
:203F600084E00E94CC1B892B09F030C705FF06C085E00E94CC1B892B09F02AC706FF06C08F
:203F800086E00E94CC1B892B09F024C707FF06C087E00E94CC1B892B09F01EC740E0612F9C
:203FA00080E00E94C30D80914A04882309F448C00091410400FF12C788E00E94CC1B892BCD
:203FC00009F40CC711E001FF06C089E00E94CC1B892B09F005C702FF06C08AE00E94CC1B35
:203FE000892B09F0FFC603FF06C08BE00E94CC1B892B09F0F9C604FF06C08CE00E94CC1B69
:20400000892B09F0F3C605FF06C08DE00E94CC1B892B09F0EDC606FF06C08EE00E94CC1B58
:20402000892B09F0E7C607FF06C08FE00E94CC1B892B09F0E1C640E0612F81E00E94C30D8B
:2040400080914B04882309F448C00091420400FFD5C680E10E94CC1B892B09F4CFC611E0BE
:2040600001FF06C081E10E94CC1B892B09F0C8C602FF06C082E10E94CC1B892B09F0C2C66C
:2040800003FF06C083E10E94CC1B892B09F0BCC604FF06C084E10E94CC1B892B09F0B6C65C
:2040A00005FF06C085E10E94CC1B892B09F0B0C606FF06C086E10E94CC1B892B09F0AAC64C
:2040C00007FF06C087E10E94CC1B892B09F0A4C640E0612F82E00E94C30D80914C0488237C
:2040E00009F448C00091430400FF98C688E10E94CC1B892B09F492C611E001FF06C089E16A
:204100000E94CC1B892B09F08BC602FF06C08AE10E94CC1B892B09F085C603FF06C08BE131
:204120000E94CC1B892B09F07FC604FF06C08CE10E94CC1B892B09F079C605FF06C08DE121
:204140000E94CC1B892B09F073C606FF06C08EE10E94CC1B892B09F06DC607FF06C08FE111
:204160000E94CC1B892B09F067C640E0612F83E00E94C30D80914D04882309F448C00091B4
:20418000440400FF5BC680E20E94CC1B892B09F455C611E001FF06C081E20E94CC1B892BA9
:2041A00009F04EC602FF06C082E20E94CC1B892B09F048C603FF06C083E20E94CC1B892B19
:2041C00009F042C604FF06C084E20E94CC1B892B09F03CC605FF06C085E20E94CC1B892B09
:2041E00009F036C606FF06C086E20E94CC1B892B09F030C607FF06C087E20E94CC1B892BF9
:2042000009F02AC640E0612F84E00E94C30D80914E04882309F448C00091450400FF1EC65F
:2042200088E20E94CC1B892B09F418C611E001FF06C089E20E94CC1B892B09F011C602FFCC
:2042400006C08AE20E94CC1B892B09F00BC603FF06C08BE20E94CC1B892B09F005C604FFEC
:2042600006C08CE20E94CC1B892B09F0FFC505FF06C08DE20E94CC1B892B09F0F9C506FFDE
:2042800006C08EE20E94CC1B892B09F0F3C507FF06C08FE20E94CC1B892B09F0EDC540E0B5
:2042A000612F85E00E94C30D80914F04882309F448C00091460400FFE1C580E30E94CC1B17
:2042C000892B09F4DBC511E001FF06C081E30E94CC1B892B09F0D4C502FF06C082E30E94D5
:2042E000CC1B892B09F0CEC503FF06C083E30E94CC1B892B09F0C8C504FF06C084E30E94D4
:20430000CC1B892B09F0C2C505FF06C085E30E94CC1B892B09F0BCC506FF06C086E30E94C3
:20432000CC1B892B09F0B6C507FF06C087E30E94CC1B892B09F0B0C540E0612F86E00E94D5
:20434000C30D80915004882309F448C00091470400FFA4C588E30E94CC1B892B09F49EC52C
:2043600011E001FF06C089E30E94CC1B892B09F097C502FF06C08AE30E94CC1B892B09F01E
:2043800091C503FF06C08BE30E94CC1B892B09F08BC504FF06C08CE30E94CC1B892B09F09D
:2043A00085C505FF06C08DE30E94CC1B892B09F07FC506FF06C08EE30E94CC1B892B09F08D
:2043C00079C507FF06C08FE30E94CC1B892B09F073C540E0612F87E00E94C30D8091510404
:2043E0008823C1F10091480400FF68C580E40E94CC1B892B09F462C511E001FF06C081E476
:204400000E94CC1B892B09F05BC502FF06C082E40E94CC1B892B09F055C503FF06C083E49A
:204420000E94CC1B892B09F04FC504FF06C084E40E94CC1B892B09F049C505FF06C085E48A
:204440000E94CC1B892B09F043C540E0612F88E00E94C30D80918B0690918C06DC01ED91E4
:20446000FC910480F581E02D1995892B09F4D3C180918B0690918C06DC01ED91FC910680F2
:20448000F781E02D19959C018F3FBFEF9B0711F3982F80915806882309F492C0973F09F02B
:2044A0007EC010925806A0915006B09151066C916137C1F1693709F05CC0E0918506F09126
:2044C0008606309739F28091590690915A068330910538F420E030E040E050E060E070E008
:2044E0001BC0BD016D5F7F4F03970E94411BBC016D5F7F4F80E00E94121BE0915006F09123
:2045000051069F012D5F3F4F428150E0618170E0E0918506F091860680916706909168064F
:20452000199598CF8091810690918206892B09F491CFBD016F5F7F4F8091590690915A06C9
:2045400001970E94411BBC016F5F7F4F80E00E94121B60915006709151066F5F7F4FE09191
:204560008106F091820680916D0690916E06199571CFE0918306F0918406309709F46ACFA2
:204580009D012F5F3F4F4091590650915A064150510980916F069091700619955BCF60911F
:2045A000590670915A06822F0E94121B8091590690915A06019690935A06809359064ACF25
:2045C00060915606709157066115710509F4AFC027FDADC06150710970935706609356066D
:2045E000822F0E94121B8091560690915706892B09F030CF80915406882309F42BCF803DDA
:2046000009F47FC030F4803939F1803C09F466C08BC0843FE1F1853F09F44DC0803E09F013
:2046200083C0E0917306F0917406309709F47CC0A0915006B09151068C9111964C9150E062
:2046400020E8829F400D511D11246091550680915B0690915C0667C0E0917506F0917606F0
:20466000309709F461C0A0915006B09151068C9111964C9150E030E8839F400D511D11243B
:204680006091550680915D0690915E064CC0E0917B06F0917C06309709F446C0A091500683
:2046A000B09151064C9150E011966C91809163069091640638C0E0917D06F0917E063097F4
:2046C00099F1A0915006B09151064C9150E011966C91809165069091660625C0E0917706A4
:2046E000F0917806309701F1A0915006B09151064C9150E06091550680915F06909160068D
:2047000012C0E0917906F0917A06309769F0A0915006B09151064C9150E06091550680912D
:2047200061069091620619951092540693CE903F30F4822F8F7080935506922F907F903FCE
:2047400099F158F4903C39F118F49039E9F082CE903D09F1903EC1F07DCE993F09F44EC01B
:2047600028F48CE0890F823078F074CE9F3F09F071CE10925706109256061092540610920C
:20478000550680E090E018C0A2E0B0E0B0935706A093560606C0E1E0F0E0F0935706E0932B
:2047A00056069093540656CEF1E0F093580610925A06109259064ECE209152063091530608
:2047C0008217930748F4E0915006F0915106E80FF91F10820196F0CF1092580610925A06D2
:2047E00010925906E0918906F0918A06309709F431CE80917106909172060BC0E0918706FA
:20480000F0918806309709F425CE8091690690916A0619951FCE0E94A91D0091B6041091D2
:20482000B7042091B8043091B90440910102509102026A01E12CF12CAB01BC01401B510B64
:20484000620B730BC416D506E606F70608F0B7C2D901C8018C0D9D1DAE1DBF1D8093B604F4
:204860009093B704A093B804B093B9048091B4049091B5049C012F5F3F4F3093B5042093E0
:20488000B4042091A6043091A704281739070CF0C3C01092B5041092B404C090A404D0908E
:2048A000A504C114D10409F4B7C0E090B204F090B304F701EE0FFF1FE856FB4F0081118126
:2048C000D80112968C911297882321F061E08C910E94221D60E0F80180810E94F51BC101E8
:2048E0000197F1F761E0D8018C910E94F51B82E290E00197F1F760E0F80180810E94F51B0F
:20490000D80112968C911297882321F060E08C910E94221D0E945E1DF8016383748385835B
:204920009683D80111968C910E94CC1B892B09F0D1C20E945E1DF801438054806580768070
:20494000DC01CB0184199509A609B7094780508461847284481659066A067B0610F7BAC25D
:204960000E945E1DF8014380548065807680DC01CB0184199509A609B709478050846184DC
:204980007284481659066A067B0638F0D80111968C910E94CC1B892B19F70E945E1DF8014B
:2049A0000381148125813681E092B104F1E0CF1AD108EC14FD040CF497C21092B304109272
:2049C000B204CB01801B910B68E370E00E94B72E862F8F778093B004660F672F661F770B68
:2049E00071956093AF0480EF0E941E1A83E60E941E1AE091B104F0E0EE56FB4F80810E9458
:204A00001E1A8091B0040E941E1A8091AF040E941E1A87EF0E941E1A8091AD049091AE043C
:204A20009C012F5F3F4F3093AE042093AD042091900430919104281739070CF048C1209114
:204A40008E0430918F042115310509F440C18091AC04482F50E0FA01E857FB4FE080FA01BF
:204A6000EE57FB4FD0801092AE041092AD04215031094217530724F48F5F8093AC0402C0C7
:204A80001092AC041092A8041092A9041092AA041092AB048091AD0AF6E1DF124FC088233C
:204AA00009F0F89461E08E2D0E94831A8C018091AD0A882309F078940115110509F04EC0FE
:204AC000C090A90AF090A80A6091A80A7091A90A76276727762780E090E00E94532D2DEC77
:204AE0003CEC4CEC5DE30E941A2E6093AE0A7093AF0A8093B00A9093B10A0091AA0A109134
:204B0000AB0A602F70E0762F6627610F711D072E000C880B990B0E94552D2DEC3CEC4CECBC
:204B20005DE30E941A2E6093B20A7093B30A8093B40A9093B50AFC0C0F0D7DC0882309F024
:204B4000F89462E18E2D0E94831A8C018091AD0A882309F078940115110589F08092AE0A18
:204B60009092AF0AA092B00AB092B10A8092B20A9092B30AA092B40AB092B50A64C0C0905F
:204B8000A80AF090A90A6F2D70E080E090E00E94552D2DEC3CEC4CEC5DE30E941A2E2B0181
:204BA0003C016C2D70E080E090E00E94552D9B01AC01C301B2010E94B82C6093AE0A7093E7
:204BC000AF0A8093B00A9093B10A1091AA0A0091AB0A612F6F7770E080E090E00E94552D1C
:204BE0002B013C01602F70E080E090E00E94552D2DEC3CEC4CEC5DE30E941A2E9B01AC018D
:204C0000C301B2010E94B82C6093B20A7093B30A8093B40A9093B50A17FF0BC0DC01CB01EB
:204C2000B0588093B20A9093B30AA093B40AB093B50AFC0C1F0D100F8091AC0A181709F484
:204C40005BC10FEF1FEF80EF0E941E1A85E60E941E1A8E2D0E941E1A8D2D0E941E1AC801AC
:204C600017FF03C09195819591090E941E1A20E030E0A9016D817E818F8198850E94E12D27
:204C800087FD02C080E001C081E00E941E1A20E030E0A90169857A858B859C850E94E12DEA
:204CA00087FD06C080E00E941E1A08EA14E002C081E0F9CFD8018D918D010E941E1AECEA6A
:204CC000F4E0E017F107B1F787EF0E941E1A00E916E08AECF82EFFE0FF15B8F0D8018C910D
:204CE000823099F480918004909181040F2C02C0959587950A94E2F780FF07C08F2D0E94DC
:204D0000AD1BBC018F2D0E946019F3940F5F1F4FB0E1FB12E0CF8091000287FD1CC010E024
:204D200005E0212F30E080910002082E000C990B8217930784F0029FF001039FF00D112428
:204D4000E85AFB4F618172812481438180810E948C0E1F5FE6CF009156041091570401151C
:204D6000110569F10E94A91DC0905204D0905304E0905404F0905504AB01BC014C195D0929
:204D80006E097F09E8EEF3E00E9FC0010F9F900D1E9F900D1124A0E0B0E084179507A6072F
:204DA000B70768F40E94BF1C98E088E10FB6F894A895809360000FBE90936000FFCF0E94BA
:204DC0001613B5C810E0C2C81860C8C81061CEC81062D4C81064DAC81068E0C810E0F3C8B5
:204DE0001260F9C81460FFC8186005C910610BC9106211C9106417C910681DC910E030C9D3
:204E0000126036C914603CC9186042C9106148C910624EC9106454C910685AC910E06DC9C8
:204E2000126073C9146079C918607FC9106185C910628BC9106491C9106897C910E0AAC9C0
:204E40001260B0C91460B6C91860BCC91061C2C91062C8C91064CEC91068D4C910E0E7C9B8
:204E60001260EDC91460F3C91860F9C91061FFC9106205CA10640BCA106811CA10E024CAAC
:204E800012602ACA146030CA186036CA10613CCA106242CA106448CA10684ECA10E061CAA0
:204EA000126067CA14606DCA186073CA106179CA10627FCA106485CA10688BCA10E09DCA99
:204EC0001260A3CA1460A9CA1860AFCA1061B5CA1062BBCA0E945E1DD80113966D937D9385
:204EE0008D939C93169752CD4FEFE41AF40AF092B304E092B20465CD8091AE0A9091AF0A27
:204F0000A091B00AB091B10A8D839E83AF83B887AE014F5F5F4FBC01CD010E94E62D2B0191
:204F20003C0169817A818B819C810E94242D6093A80420E030E048EC52E4C301B2010E9401
:204F40001A2E0E94242D6093A9048091B20A9091B30AA091B40AB091B50A89879A87AB8779
:204F6000BC87AE014F5F5F4FBC01CD010E94E62D2B013C0169817A818B819C810E94242D39
:204F80006093AA0420E030E048EC52E4C301B2010E941A2E0E94242D6093AB0400E010E030
:204FA00052CECF93DF932DE036E010924E0610924D06309351062093500680E490E09093D5
:204FC000530680935206109254061092550610925706109256061092580610925A06109273
:204FE000590610925C0610925B0610925E0610925D061092600610925F0610926206109285
:2050000061061092640610926306109266061092650610926C0610926B0610926E06109218
:205020006D061092700610926F0610927206109271061092800610927F0610924F061092B3
:205040008D0610928F0610928E0681E0809362074BEE51E1509374064093730641EE51E1FE
:20506000509376064093750643EC51E1509378064093770649EB51E150937A064093790656
:2050800047ED51E150937C0640937B064DEC51E150937E0640937D0648EB51E150938206F9
:2050A000409381064DEA51E1509384064093830643E954E150938606409385063093680605
:2050C0002093670641E851E1509388064093870630936A062093690629E731E130938A06BA
:2050E00020938906109266071092650748EE53E060E070E040936707509368076093690762
:2051000070936A072EE032E030936407209363071092F8091092F7094093F9095093FA09B0
:205120006093FB097093FC09AEE1B2E0B093F609A093F50921EB39E03093020A2093010A2A
:205140002DE639E03093040A2093030A25EC30E03093060A2093050A24EC30E03093080AE7
:205160002093070A20EC30E030930A0A2093090A21EC30E030930C0A20930B0A22EC30E0D6
:2051800030930E0A20930D0A26EC30E03093100A20930F0AE4E0E093110A33E03093120A5B
:2051A00027E02093130A95E09093140A8093150A10924E0910924D0940934F0950935009D8
:2051C0006093510970935209B0934C09A0934B09C7E0D9E0D0935809C0935709C3ECD8E0C7
:2051E000D0935A09C0935909CDECD0E0D0935C09C0935B09CCECD0E0D0935E09C0935D0961
:20520000C8ECD0E0D0936009C0935F09C9ECD0E0D0936209C0936109CAECD0E0D09364097D
:20522000C0936309CEECD0E0D0936609C0936509E0936709309368092093690990936A09E0
:2052400080936B091092A4081092A3084093A5085093A6086093A7087093A808B093A208D9
:20526000A093A108CDE5D8E0D093AE08C093AD08C9E1D8E0D093B008C093AF08C5EDD0E0DE
:20528000D093B208C093B108C4EDD0E0D093B408C093B308C0EDD0E0D093B608C093B508C9
:2052A000C1EDD0E0D093B808C093B708C2EDD0E0D093BA08C093B908C6EDD0E0D093BC0839
:2052C000C093BB08E093BD083093BE082093BF089093C0088093C1081092FA071092F90771
:2052E0004093FB075093FC076093FD077093FE07B093F807A093F70743EB57E0509304082D
:20530000409303084FE657E0509306084093050845E351E0509308084093070844E351E0EC
:2053200050930A084093090840E351E050930C0840930B0841E351E050930E0840930D082D
:2053400042E351E05093100840930F0846E351E05093120840931108E09313083093140862
:205360002093150890931608809317088091A70AA6EBBAE09FEF48EB5BE0803378F48C93C3
:20538000282F30E0F901EE0FFF1F2E0F3F1FF901E95EF54F528341838F5F01C09C93139651
:2053A0002BE0A634B20749F78093A70A1092AD0A1092B20A1092B30A1092B40A1092B50A74
:2053C0001092AE0A1092AF0A1092B00A1092B10ADF91CF910895F8940C94EE2EBB272A306E
:2053E00051F4992342F4BDE290958095709561957F4F8F4F9F4F0C94FE29BB27FA01A62F8F
:205400006217710581059105330B30FB66F0AA27660F771F881F991FAA1FA21710F0A21B48
:2054200063953850A9F7A05DAA3308F0A95DA19336F7B111B1931082CA010C941F2ADC01EA
:20544000FC01672F71917723E1F7329704C07C916D9370836291AE17BF07C8F30895052EAF
:2054600097FB1EF400940E94462A57FD07D00E94612A07FC03D04EF40C94462A50954095A8
:20548000309521953F4F4F4F5F4F089590958095709561957F4F8F4F9F4F08950E94832A5F
:2054A000A59F900DB49F900DA49F800D911D11240895B7FF0C944E2A0E944E2A821B930BA8
:2054C0000895A1E21A2EAA1BBB1BFD010DC0AA1FBB1FEE1FFF1FA217B307E407F50720F0C6
:2054E000A21BB30BE40BF50B661F771F881F991F1A9469F760957095809590959B01AC013D
:20550000BD01CF010895A29FB001B39FC001A39F700D811D1124911DB29F700D811D11247A
:20552000911D08950F931F93CF93DF938230910510F482E090E0E091AB0BF091AC0B20E07B
:2055400030E0A0E0B0E0309719F1408151810281138148175907C8F08417950769F41097FE
:2055600031F012960C93129713961C9327C00093AB0B1093AC0B22C02115310519F0421788
:20558000530718F49A01BD01EF01DF01F801DBCF21153105F9F0281B390B2430310580F4FF
:2055A0008A819B816115710521F0FB019383828304C09093AC0B8093AB0BFE01329644C07E
:2055C000FE01E20FF31F8193919322503109398328833AC02091A90B3091AA0B232B41F426
:2055E00020910602309107023093AA0B2093A90B20910402309105022115310541F42DB745
:205600003EB74091080250910902241B350BE091A90BF091AA0BE217F307A0F42E1B3F0BDA
:205620002817390778F0AC014E5F5F4F2417350748F04E0F5F1F5093AA0B4093A90B8193BE
:20564000919302C0E0E0F0E0CF01DF91CF911F910F910895CF93DF93009709F481C0FC01A1
:20566000329713821282A091AB0BB091AC0B109781F420813181820F931F2091A90B309181
:20568000AA0B2817390751F5F093AA0BE093A90B67C0ED0120E030E0CE17DF0740F44A8142
:2056A0005B819E0141155105F1F0EA01F5CFD383C28340815181840F951FC817D90759F4B2
:2056C00088819981840F951F0296918380838A819B81938382832115310529F4F093AC0BAC
:2056E000E093AB0B3DC0E901FB83EA8349915991C40FD51FEC17FD0761F480819181840F22
:20570000951F0296E90199838883828193819B838A83E0E0F0E012968D919C911397009726
:2057200019F0FD01DC01F7CF8D919C9111979D012E5F3F4F820F931F2091A90B3091AA0BF5
:205740002817390769F4309729F41092AC0B1092AB0B02C013821282B093AA0BA093A90B0E
:20576000DF91CF9108956F927F928F929F92AF92BF92CF92DF92EF92FF920F931F93CF932C
:20578000DF93009789F4CB01DF91CF911F910F91FF90EF90DF90CF90BF90AF909F908F90DF
:2057A0007F906F900C94922AFC01E60FF71F9C0122503109E217F30708F4A9C0EC01D9010F
:2057C0000D911C91119706171707B0F00530110508F49BC0C80104978617970708F495C069
:2057E00002501109061B170B019311936D937C93CF010E942A2B89C05B01A01AB10A4C0185
:20580000800E911EA091AB0BB091AC0B612C712CE12CF12C109709F446C08D919C9111977B
:20582000A815B905B1F56C0142E0C40ED11CCA14DB0478F14C018A189B08640142E0C40EE8
:20584000D11C1296BC9012971396AC91B5E0CB16D10440F0B282A38391828082D9016D9314
:205860007C9309C00E5F1F4F800F911FF90191838083EB2DFA2FE114F10431F0D701139658
:20588000FC93EE93129741C0F093AC0BE093AB0B3CC06816790608F43C017D0112960D90F6
:2058A000BC91A02DB7CF8091A90B9091AA0B88169906E1F466167706C8F4809104029091AE
:2058C0000502009741F48DB79EB74091080250910902841B950BE817F907C8F4F093AA0B63
:2058E000E093A90BF901718360830FC0CB010E94922A7C01009759F0A801BE010E94982C8C
:20590000CE010E942A2BC70104C0CE0102C080E090E0DF91CF911F910F91FF90EF90DF9037
:20592000CF90BF90AF909F908F907F906F900895FB01DC0102C001900D9241505040D8F7C6
:205940000895FB01DC0101900D920020E1F70895FB01DC014150504048F001900D9200208A
:20596000C9F701C01D9241505040E0F708955058BB27AA270E94CF2C0C94A72D0E94992D8E
:2059800038F00E94A02D20F039F49F3F19F426F40C94962D0EF4E095E7FB0C94902DE92FFD
:2059A0000E94B82D58F3BA17620773078407950720F079F4A6F50C94DA2D0EF4E0950B2ECB
:2059C000BA2FA02D0B01B90190010C01CA01A0011124FF27591B99F0593F50F4503E68F126
:2059E0001A16F040A22F232F342F4427585FF3CF469537952795A795F0405395C9F77EF4F4
:205A00001F16BA0B620B730B840BBAF09150A1F0FF0FBB1F661F771F881FC2F70EC0BA0FFC
:205A2000621F731F841F48F4879577956795B795F7959E3F08F0B0CF9395880F08F09927AD
:205A4000EE0F9795879508950E94C02D88F09F5798F0B92F9927B751B0F0E1F0660F771FB3
:205A6000881F991F1AF0BA95C9F714C0B13091F00E94DA2DB1E008950C94DA2D672F782FBD
:205A80008827B85F39F0B93FCCF3869577956795B395D9F73EF490958095709561957F4FF0
:205AA0008F4F9F4F0895E89409C097FB3EF490958095709561957F4F8F4F9F4F9923A9F050
:205AC000F92F96E9BB279395F695879577956795B795F111F8CFFAF4BB0F11F460FF1BC05A
:205AE0006F5F7F4F8F4F9F4F16C0882311F096E911C0772321F09EE8872F762F05C0662392
:205B000071F096E8862F70E060E02AF09A95660F771F881FDAF7880F9695879597F908958A
:205B200097F99F6780E870E060E008959FEF80EC089500240A9416161706180609060895CE
:205B400000240A9412161306140605060895092E0394000C11F4882352F0BB0F40F4BF2BCC
:205B600011F460FF04C06F5F7F4F8F4F9F4F089557FD9058440F551F59F05F3F71F04795D1
:205B8000880F97FB991F61F09F3F79F087950895121613061406551FF2CF4695F1DF08C0D0
:205BA000161617061806991FF1CF86957105610508940895E894BB2766277727CB0197F9F1
:205BC00008950E94872E08F48FEF0895FA01DC01AA0FBB1F9B01AC01BF5728F42227332731
:205BE0004427507820C0B75190F4AB2F0024469537952795011CA395D2F3002071F0220FD9
:205C0000331F441FB395DAF30ED00C94B72C61307105A0E88A07B94630F49B01AC01662740
:205C2000772788279078309621F0208331834283538308950E942D2E0C94A72D0E94992DD0
:205C400038F00E94A02D20F0952311F00C94902D0C94962D11240C94DB2D0E94B82D70F35D
:205C6000959FC1F3950F50E0551F629FF001729FBB27F00DB11D639FAA27F00DB11DAA1FDD
:205C8000649F6627B00DA11D661F829F2227B00DA11D621F739FB00DA11D621F839FA00D31
:205CA000611D221F749F3327A00D611D231F849F600D211D822F762F6A2F11249F575040D3
:205CC0009AF0F1F088234AF0EE0FFF1FBB1F661F771F881F91505040A9F79E3F510580F009
:205CE0000C94902D0C94DB2D5F3FE4F3983ED4F3869577956795B795F795E7959F5FC1F760
:205D0000FE2B880F911D9695879597F90895990F0008550FAA0BE0E8FEEF16161706E807EB
:205D2000F907C0F012161306E407F50798F0621B730B840B950B39F40A2661F0232B242B8E
:205D4000252B21F408950A2609F4A140A6958FEF811D811D0895991B79E004C0991F96176B
:205D600008F0961B881F7A95C9F780950895AA1BBB1B51E107C0AA1FBB1FA617B70710F0A0
:205D8000A61BB70B881F991F5A95A9F780959095BC01CD01089597FB072E16F4009407D0F4
:205DA00077FD09D00E94B72E07FC05D03EF4909581959F4F0895709561957F4F0895EE0FDC
:205DC000FF1F881F8BBF0790F691E02D19940E94832AB7FF0895821B930B0895F894FFCF08
:205DE000FF1300FF0000AD0B2000000000004E12211219120512F611F511000000007D1249
:205E000051110613CA12EA12BF124669726D617461457870726573732E6370700031302DB1
:205E20006269742061646472657373696E67206E6F7420737570706F7274656400746F6F16
:205E4000206D616E7920717565726965730050494E475F434F4E464947204572726F723AA8
:205E6000204578636565646564206E756D626572206F6620737570706F727465642070694E
:205E80006E672064657669636573005354455050455220434F4E464947204572726F723ACD
:205EA0002057726F6E67204E756D626572206F6620617267756D656E747300617267632084
:205EC0003D200053544550504552204F504552415445204572726F723A204D4F544F5220DD
:205EE0004E4F5420434F4E464947555245440053544550504552204649524D5741524520EB
:205F000056455253494F4E204572726F723A204E4F204D4F544F525320434F4E464947550B
:205F2000524544005354455050455220434F4E464947204572726F723A20554E4B4E4F5727
:205F40004E205354455050455220434F4D4D414E44004552524F523A20554E4B4E4F574E7D
:205F60002053454E534F5220545950452C2056414C49442053454E534F52532041524520A4
:205F800031312C203232004448545F434F4E464947204572726F723A2045786365656465C3
:205FA00064206E756D626572206F6620737570706F72746564204448542064657669636549
:205FC00073004932433A20546F6F206D616E79206279746573207265636569766564004938
:205FE00032433A20546F6F20666577206279746573207265636569766564004D61782073D7
:206000006572766F7320617474616368656400556E6B6E6F776E2070696E206D6F646500D7
:20602000FFFFFFFFFFFFFFFFFFFFFFFFFFFFFFFFFFFFFFFFFFFFFFFFFFFFFFFFFFFFFFFF80
:20604000FFFFFFFFFFFFFFFFFFFFFFFFFFFFFFFFFFFFFFFFFFFFFFFFFFFFFFFFFFFFFFFF60
:20606000FFFFFFFFFFFFFFFFFFFFFFFFFFFFFFFFFFFFFFFFFFFFFFFFFFFFFFFFFFFFFFFF40
:20608000FFFFFFFFFFFFFFFFFFFFFFFFFFFFFFFFFFFFFFFFFFFFFFFFFFFFFFFFFFFFFFFF20
:020000040003F7
:20E000000D9489F10D94B2F10D94B2F10D94B2F10D94B2F10D94B2F10D94B2F10D94B2F109
:20E020000D94B2F10D94B2F10D94B2F10D94B2F10D94B2F10D94B2F10D94B2F10D94B2F1C0
:20E040000D94B2F10D94B2F10D94B2F10D94B2F10D94B2F10D94B2F10D94B2F10D94B2F1A0
:20E060000D94B2F10D94B2F10D94B2F10D94B2F10D94B2F10D94B2F10D94B2F10D94B2F180
:20E080000D94B2F10D94B2F10D94B2F10D94B2F10D94B2F10D94B2F10D94B2F10D94B2F160
:20E0A0000D94B2F10D94B2F10D94B2F10D94B2F10D94B2F10D94B2F10D94B2F10D94B2F140
:20E0C0000D94B2F10D94B2F10D94B2F10D94B2F10D94B2F10D94B2F10D94B2F10D94B2F120
:20E0E0000D94B2F141546D656761323536300041726475696E6F206578706C6F726572205D
:20E1000073746B3530305632206279204D4C5300426F6F746C6F616465723E004875683FDC
:20E1200000436F6D70696C6564206F6E203D20004350552054797065202020203D20005F52
:20E140005F4156525F415243485F5F3D2000415652204C696243205665723D200047434305
:20E160002056657273696F6E203D20004350552049442020202020203D20004C6F772066B2
:20E18000757365202020203D20004869676820667573652020203D200045787420667573A6
:20E1A00065202020203D20004C6F636B20667573652020203D20004D6172202037203230EB
:20E1C000313300312E362E3800342E332E35005623202020414444522020206F7020636FC3
:20E1E00064652020202020696E737472756374696F6E2061646472202020496E7465727265
:20E20000757074006E6F20766563746F7200726A6D702020006A6D70200057686174207091
:20E220006F72743A00506F7274206E6F7420737570706F72746564004D7573742062652083
:20E2400061206C65747465720020005772697474696E672045450052656164696E6720456C
:20E26000450045452065727220636E743D00504F525400303D5A65726F2061646472003F78
:20E280003D43505520737461747300403D454550524F4D207465737400423D426C696E6B76
:20E2A000204C454400453D44756D7020454550524F4D00463D44756D7020464C41534800C2
:20E2C000483D48656C70004C3D4C69737420492F4F20506F72747300513D51756974005269
:20E2E0003D44756D702052414D00563D73686F7720696E7465727275707420566563746FC9
:20E30000727300593D506F727420626C696E6B002A0011241FBECFEFD1E2DEBFCDBF01E0F6
:20E320000CBF12E0A0E0B2E0EEE1FDEF03E00BBF02C007900D92A030B107D9F712E0A0E0E4
:20E34000B2E001C01D92AE30B107E1F70F9460F30D948DFE01E20EBF0FEF0DBF11241FBE9F
:20E360000D9460F30D9400F020E030E040ED57E005C0FA013197F1F72F5F3F4F2817390799
:20E38000C0F308959C01260F311DC901A0E0B0E02F5F3F4FABBFFC018791882361F0809389
:20E3A000C6008091C00086FFFCCF8091C00080648093C000EACF08958DE08093C600809141
:20E3C000C00086FFFCCF8091C00080648093C0008AE08093C6008091C00086FFFCCF809130
:20E3E000C00080648093C00008950F94C2F10F94DCF10895FC019081992359F09093C600AA
:20E400008091C00086FFFCCF8091C00080648093C0003196992379F70895282F982F92957E
:20E420009F70892F805D8A3308F0895F8093C6008091C00086FFFCCF8091C00080648093D9
:20E44000C000822F8F70982F905D9A3308F0995F9093C6008091C00086FFFCCF8091C00000
:20E4600080648093C00008959C01FB01853691051CF46330710594F0C90164E670E00F94BA
:20E480002EFE605D7F4F6093C6008091C00086FFFCCF8091C00080648093C0002B303105D2
:20E4A00014F43297B4F0C90164E670E00F942EFE6AE070E00F942EFE605D7F4F6093C60007
:20E4C0008091C00086FFFCCF8091C00080648093C000C9016AE070E00F942EFEC0968093F7
:20E4E000C6008091C00086FFFCCF8091C00080648093C00008951F93182F8EE692EE60E0E3
:20E500000F94C2F11093C6008091C00086FFFCCF8091C00080648093C0000F94DCF11F9173
:20E5200008952F923F924F925F926F927F928F929F92AF92BF92CF92DF92EF92FF920F935E
:20E540001F93DF93CF93CDB7DEB762970FB6F894DEBF0FBECDBF382E622ECA01DB015C01E2
:20E560006D01772420E2222E2E010894411C511C8BC081E0A81680E0B80681E0C80680E094
:20E58000D80628F0C601AA27BB270F940DF2BB27AD2D9C2D8B2D0F940DF28A2D0F940DF231
:20E5A0002092C6008091C00086FFFCCF8091C00080648093C0009DE29093C6008091C00001
:20E5C00086FFFCCF8091C00080648093C0002092C6008091C00086FFFCCF8091C000806415
:20E5E0008093C00019828601750188249924A1E03A1651F03A1620F0B2E03B1661F409C0D4
:20E600000BBFF701779007C0C7010F9477FE782E02C0F7017080872D0F940DF22092C6006C
:20E620008091C00086FFFCCF8091C00080648093C000872D8052F401EF70F0708F3520F41F
:20E64000E40DF51D708204C0E40DF51D8EE280830894E11CF11C011D111D0894811C911CB3
:20E6600090E18916910409F0C2CF80E190E0A0E0B0E0A80EB91ECA1EDB1E198AC2010F9413
:20E68000FAF10F94DCF16A94662009F072CF62960FB6F894DEBF0FBECDBFCF91DF911F91A2
:20E6A0000F91FF90EF90DF90CF90BF90AF909F908F907F906F905F904F903F902F900895FB
:20E6C0002F923F924F925F926F927F928F929F92AF92BF92CF92DF92EF92FF920F931F93A8
:20E6E000DF93CF93CDB7DEB7CD53D1400FB6F894DEBF0FBECDBF01E20EBF0FEF0DBF94B7F0
:20E70000F894A89514BE8091600088618093600010926000789493FF05C0E0910002F09138
:20E7200001021995279A2F9A8091C00082608093C00080E18093C40088E18093C1000000A3
:20E74000EE24FF24870144E0A42EB12CCC24DD2424C0C5010197F1F70894E11CF11C011D4A
:20E76000111D21E2E2162EE4F20620E0020720E0120718F031E0C32ED12CC801B70127ECA9
:20E780003BE140E050E00F9441FE611571058105910519F485B1805885B98091C00087FD75
:20E7A00003C0C114D104A9F2A6014F5F5F4FC25EDE4F59834883CE51D140C25EDE4F8881D4
:20E7C0009981CE51D140019711F00D9410FEC05DDE4F19821882C053D14060E0C15DDE4F79
:20E7E0001882CF52D14088249924C35DDE4F19821882CD52D140C05EDE4F188219821A8216
:20E800001B82C052D140CE5CDE4F188219821A821B82C253D140EE24FF2487010BBFF701CE
:20E8200007911691C45CDE4F19830883CC53D1400D940BFEC25EDE4F28813981CE51D1406B
:20E840002130310509F52091C600C25EDE4F19821882CE51D14022C02F5F3F4F4F4F5F4FC0
:20E86000213082E138078AE7480780E0580780F0C45CDE4FE881F981CC53D140EF5FFF4FBA
